:030000000202A653
:0C02A600787FE4F6D8FD7581290202ED96
:100442004D6F64653A2020202020202000537065E3
:1004520065643A20202020202000466F7277617266
:10046200642000526576657273616C0009080C04A1
:0C0472000602030101030206040C080945
:10052400011D00011E00011F00012000021B0041EB
:09047E00E50893F5A0AF1CAE1BCC
:10048700EF1FAA0670011E4A6016E4FDEDFB3395C7
:10049700E0FAC3EB9471EA6480948050E30D80EC3A
:0104A7002232
:1004E90053890F438910758BF0758DD8C28FD2ABA4
:0504F900D2AFD28E22FB
:10001E001204FE1204E97F147E001204877BFF7A1D
:10002E00047942E4FD7F011204A87BFF7A04794F24
:10003E007D01E4FF1204A8C3748C951CFFE4951B8C
:10004E00FE7B007A0079091202017B007A007909A1
:10005E007D017F081204A8E51D60257BFF7A0479D7
:10006E005CE4FD7F081204A8E4F508C3E5089408D3
:10007E0074809480503390046E12047E050880EBD9
:10008E00E51E60257BFF7A047965E4FD7F08120486
:10009E00A8E4F508C3E508940874809480500A908B
:1000AE00047612047E050880EBE51F604574FB257F
:1000BE001CF51C74FF351BF51BC3E51C9428E51BB2
:1000CE00648094805006751B00751C28C3748C9533
:1000DE001CFFE4951BFE7B007A0079091202017B5E
:1000EE00007A0079097D017F081204A8E4F51F0249
:1000FE000065E52070030200657405251CF51CE4FF
:10010E00351BF51BD3E51C9464E51B64809480407D
:10011E0006751B00751C64C3748C951CFFE4951B3F
:10012E00FE7B007A0079091202017B007A007909C0
:0D013E007D017F081204A8E4F52002006591
:03001B000203F7E6
:0903F700C0E0C0D075D000C007C1
:10040000C28E758BF0758DD8E590548F24F16023E2
:100410002488601A24FC601124FE600814701A7588
:100420001D018015751E018010751F01800B752040
:0B043000018006751D00751E00D28EB5
:07043B00D007D0D0D0E03261
:1004CA007580FFC294D295D296AF80C2960511E587
:0E04DA0011D39432748094805004EF20E7E92F
:0104E80022F1
:10053500AE071204CAC294C2958E80D296C2962284
:0600030014F912014BFF8D
:10000900AE071204CAD294C2958E80D296C29622A5
:1004FE007F381205357F0C1205357F061205357FC4
:04050E0001020535AC
:10051200AE07ED6005EE24C08001EE4480FF1205B7
:02052200352280
:1004A8008B0E8A0F8910120512AB0EAA0FA9101213
:1004B800014B600D0510E5107002050F1200038056
:0204C800E82228
:0603A9008F218D228B2341
:1003AF00E4FDEDC39408748094805030E52324401D
:1003BF00FFE433FEED2403FCEFA804088006CEA271
:1003CF00E713CE13D8F8FF120535AB240526E52623
:1003DF00AA25700205251200030D80C6AD22AF219C
:0803EF00120512AF2302000900
:0A0201008E0E8F0F8B108A118912E8
:10020B00E4F513F514C3E50E64809480501CC3E42D
:10021B00950FF50FE4950EF50E0512E5127002051C
:10022B001114F9742D1201640514AE0EAF0F7C007E
:10023B007D0A120176ED2430FFAE13051374152ED3
:10024B00F8A607AE0EAF0F7C007D0A1201768E0E5C
:10025B008F0FD3E50F9400E50E6480948050CBE5AF
:10026B00132514F514AF131513D3EF940074809466
:10027B0080401B74152513F8E6FFAB100512E51231
:10028B00AA117002051114F9EF12016480D7AB109B
:0A029B00AA11A912E4120164AF14C5
:0102A5002236
:060332008B278A288929AF
:10033800EFC4540FFED3940974809480500EEE24B9
:1003480030FD0529E529701405288010EE2437FDB5
:10035800AB270529E529AA287002052814F9ED120A
:100368000164EF540FFED39409748094805012EE08
:100378002430FFAB270529E529AA28701405288011
:1003880010EE2437FFAB270529E529AA28700205B6
:100398002814F9EF120164AB27AA28A929E402015D
:0103A80064F0
:1002B20002001EE493A3F8E493A34003F68001F244
:1002C20008DFF48029E493A3F85407240CC8C3334D
:1002D200C4540F4420C8834004F456800146F6DF1C
:1002E200E4800B0102040810204080900524E47E83
:1002F200019360BCA3FF543F30E509541FFEE49311
:10030200A360010ECF54C025E060A840B8E493A3D7
:10031200FAE493A3F8E493A3C8C582C8CAC583CA02
:10032200F0A3C8C582C8CAC583CADFE9DEE780BEBA
:0105340000C6
:10014B00BB010689828A83E0225002E722BBFE02B2
:09015B00E32289828A83E49322E5
:10016400BB010689828A83F0225002F722BBFE017A
:02017400F32274
:10017600C2D5EC30E709B2D5E4C39DFDE49CFCEEA4
:1001860030E715B2D5E4C39FFFE49EFE1201ACC36F
:10019600E49DFDE49CFC80031201AC30D507C3E46A
:0601A6009FFFE49EFE2213
:1001AC00BC000BBE0029EF8DF084FFADF022E4CC37
:1001BC00F875F008EF2FFFEE33FEEC33FCEE9DEC00
:1001CC00984005FCEE9DFE0FD5F0E9E4CEFD22ED46
:1001DC00F8F5F0EE8420D21CFEADF075F008EF2F90
:1001EC00FFED33FD4007985006D5F0F222C398FD81
:0501FC000FD5F0EA221E
:00000001FF
